:020000040000FA
:06000000D8EF00F0120031
:020006000000F8
:08000800060EF66E000EF76E05
:10001000000EF86E05010900F550556F0900F55006
:10002000566F03E1556701D03DD00900F550506F80
:100030000900F550516F0900F550526F0900090091
:10004000F550E96E0900F550EA6E09000900090053
:10005000F550536F0900F550546F09000900F6CFB1
:1000600057F5F7CF58F5F8CF59F550C5F6FF51C5FC
:10007000F7FF52C5F8FF0501535302E1545307E05F
:100080000900F550EE6E5307F8E25407F9D757C54B
:10009000F6FF58C5F7FF59C5F8FF05015507000ED3
:0600A000565BBFD7120001
:0A00A600D9CFE6FFDACFE6FFE1CF85
:1000B000D9FFE2CFDAFFAC6AAB6AFD0EDBB0AC88E9
:1000C000DBA202D0AC8CAB8CDBB4AC8EDBA602D056
:1000D000AB8801D0AB8ADBB8AC849E98DBBAAB8628
:1000E000DBAC02D09D8A01D09D9A9E9ADBAE02D0F5
:1000F0009D8801D09D98FB0EDB50AF6EFB0EFC0E71
:10010000DBCF01F001C000F0016A0050B06EAC8A94
:10011000AB8E949C948EAC50100B04E0AC50800BD2
:1001200001E1948CE552E5CFDAFFE7CFD9FF120069
:10013000D9CFE6FFE1CFD9FF040EE126600EDE6ED7
:10014000000EDD6ED950020FE96EDACFEAFF280EFD
:10015000EE6E010EED6E8C6A956ADECFE9FFDDCFA3
:10016000EAFF020EEF6E320EE66EE66A3C0EE66EB7
:1001700053EC00F0E552E552E552FFD7040EE15C86
:1001800002E2E16AE552E16EE552E7CFD9FF1200E3
:10019000000EF36E00EE00F0080E01D81200EA60C7
:1001A00002D0EE6AFCD7F350E9601200EE6AFCD789
:1001B00014EE50F024EE50F0F86A619C04EC00F06C
:0C01C000E6EC00F098EC00F0FBD7120019
:0201CC0012001F
:020000040030CA
:010001000CF2
:010002001FDE
:010003001EDE
:0100050001F9
:010006008178
:00000001FF
